{
  "address": "0x5FbDB2315678afecb367f032d93F642f64180aa3",
  "abi": [
    {
      "inputs": [],
      "name": "createStake",
      "outputs": [],
      "stateMutability": "payable",
      "type": "function"
    },
    {
      "inputs": [],
      "name": "getNoofStakers",
      "outputs": [
        {
          "internalType": "uint256",
          "name": "",
          "type": "uint256"
        }
      ],
      "stateMutability": "view",
      "type": "function"
    },
    {
      "inputs": [
        {
          "internalType": "uint256",
          "name": "_index",
          "type": "uint256"
        }
      ],
      "name": "getStakeAddresses",
      "outputs": [
        {
          "internalType": "address",
          "name": "",
          "type": "address"
        }
      ],
      "stateMutability": "view",
      "type": "function"
    },
    {
      "inputs": [
        {
          "internalType": "uint256",
          "name": "",
          "type": "uint256"
        }
      ],
      "name": "stakeAddrresses",
      "outputs": [
        {
          "internalType": "contract Stake",
          "name": "",
          "type": "address"
        }
      ],
      "stateMutability": "view",
      "type": "function"
    }
  ],
  "transactionHash": "0x528516fdb3efe11262daf6b36f8534658bb8ee2b5b8398eeec0dd75ef9406442",
  "args": [],
  "numDeployments": 1,
  "solcInputHash": "44a1bfd984697cba03f9a34d587a42d0",
  "bytecode": "0x608060405234801561001057600080fd5b50610d69806100206000396000f3fe60806040526004361061003f5760003560e01c80630c7331b1146100445780633fca7a6a1461004e5780639a67cdd21461008b578063b3dbd1bc146100c8575b600080fd5b61004c6100f3565b005b34801561005a57600080fd5b506100756004803603810190610070919061026f565b610188565b60405161008291906102dd565b60405180910390f35b34801561009757600080fd5b506100b260048036038101906100ad919061026f565b6101cf565b6040516100bf9190610357565b60405180910390f35b3480156100d457600080fd5b506100dd61020e565b6040516100ea9190610381565b60405180910390f35b60003460405161010290610227565b6040518091039082f090508015801561011f573d6000803e3d6000fd5b5090506000819080600181540180825580915050600190039060005260206000200160009091909190916101000a81548173ffffffffffffffffffffffffffffffffffffffff021916908373ffffffffffffffffffffffffffffffffffffffff16021790555050565b600080828154811061019d5761019c61039c565b5b9060005260206000200160009054906101000a900473ffffffffffffffffffffffffffffffffffffffff169050919050565b600081815481106101df57600080fd5b906000526020600020016000915054906101000a900473ffffffffffffffffffffffffffffffffffffffff1681565b6000600160008054905061022291906103fa565b905090565b6108e38061045183390190565b600080fd5b6000819050919050565b61024c81610239565b811461025757600080fd5b50565b60008135905061026981610243565b92915050565b60006020828403121561028557610284610234565b5b60006102938482850161025a565b91505092915050565b600073ffffffffffffffffffffffffffffffffffffffff82169050919050565b60006102c78261029c565b9050919050565b6102d7816102bc565b82525050565b60006020820190506102f260008301846102ce565b92915050565b6000819050919050565b600061031d6103186103138461029c565b6102f8565b61029c565b9050919050565b600061032f82610302565b9050919050565b600061034182610324565b9050919050565b61035181610336565b82525050565b600060208201905061036c6000830184610348565b92915050565b61037b81610239565b82525050565b60006020820190506103966000830184610372565b92915050565b7f4e487b7100000000000000000000000000000000000000000000000000000000600052603260045260246000fd5b7f4e487b7100000000000000000000000000000000000000000000000000000000600052601160045260246000fd5b600061040582610239565b915061041083610239565b9250827fffffffffffffffffffffffffffffffffffffffffffffffffffffffffffffffff03821115610445576104446103cb565b5b82820190509291505056fe60a060405260b4426100119190610123565b60809081525060003073ffffffffffffffffffffffffffffffffffffffff163460405161003d906101aa565b60006040518083038185875af1925050503d806000811461007a576040519150601f19603f3d011682016040523d82523d6000602084013e61007f565b606091505b50509050806100ba576040517ff1b8e45500000000000000000000000000000000000000000000000000000000815260040160405180910390fd5b60016000806101000a81548160ff021916908360038111156100df576100de6101bf565b5b0217905550506101ee565b6000819050919050565b7f4e487b7100000000000000000000000000000000000000000000000000000000600052601160045260246000fd5b600061012e826100ea565b9150610139836100ea565b9250827fffffffffffffffffffffffffffffffffffffffffffffffffffffffffffffffff0382111561016e5761016d6100f4565b5b828201905092915050565b600081905092915050565b50565b6000610194600083610179565b915061019f82610184565b600082019050919050565b60006101b582610187565b9150819050919050565b7f4e487b7100000000000000000000000000000000000000000000000000000000600052602160045260246000fd5b6080516106d36102106000396000818161018c01526102c201526106d36000f3fe6080604052600436106100705760003560e01c80634f1c44e81161004e5780634f1c44e814610108578063d0e30db014610133578063dfdaeb301461013d578063f86ccd411461014757610070565b806327e235e31461007557806329dcb0cf146100b257806342cde4e8146100dd575b600080fd5b34801561008157600080fd5b5061009c600480360381019061009791906104df565b610172565b6040516100a99190610525565b60405180910390f35b3480156100be57600080fd5b506100c761018a565b6040516100d49190610525565b60405180910390f35b3480156100e957600080fd5b506100f26101ae565b6040516100ff9190610525565b60405180910390f35b34801561011457600080fd5b5061011d6101ba565b60405161012a91906105b7565b60405180910390f35b61013b6101cb565b005b6101456102c0565b005b34801561015357600080fd5b5061015c610474565b6040516101699190610525565b60405180910390f35b60016020528060005260406000206000915090505481565b7f000000000000000000000000000000000000000000000000000000000000000081565b670de0b6b3a764000081565b60008054906101000a900460ff1681565b60003411610205576040517f6ef2e20400000000000000000000000000000000000000000000000000000000815260040160405180910390fd5b34600160003373ffffffffffffffffffffffffffffffffffffffff1673ffffffffffffffffffffffffffffffffffffffff16815260200190815260200160002060008282546102549190610601565b925050819055506002339080600181540180825580915050600190039060005260206000200160009091909190916101000a81548173ffffffffffffffffffffffffffffffffffffffff021916908373ffffffffffffffffffffffffffffffffffffffff160217905550565b7f000000000000000000000000000000000000000000000000000000000000000042101561031a576040517f65e76f8100000000000000000000000000000000000000000000000000000000815260040160405180910390fd5b60036000806101000a81548160ff0219169083600381111561033f5761033e610540565b5b02179055506000600160003373ffffffffffffffffffffffffffffffffffffffff1673ffffffffffffffffffffffffffffffffffffffff1681526020019081526020016000205490506000600160003373ffffffffffffffffffffffffffffffffffffffff1673ffffffffffffffffffffffffffffffffffffffff1681526020019081526020016000208190555060003073ffffffffffffffffffffffffffffffffffffffff16826040516103f390610688565b60006040518083038185875af1925050503d8060008114610430576040519150601f19603f3d011682016040523d82523d6000602084013e610435565b606091505b5050905080610470576040517ff1b8e45500000000000000000000000000000000000000000000000000000000815260040160405180910390fd5b5050565b600047905090565b600080fd5b600073ffffffffffffffffffffffffffffffffffffffff82169050919050565b60006104ac82610481565b9050919050565b6104bc816104a1565b81146104c757600080fd5b50565b6000813590506104d9816104b3565b92915050565b6000602082840312156104f5576104f461047c565b5b6000610503848285016104ca565b91505092915050565b6000819050919050565b61051f8161050c565b82525050565b600060208201905061053a6000830184610516565b92915050565b7f4e487b7100000000000000000000000000000000000000000000000000000000600052602160045260246000fd5b600481106105805761057f610540565b5b50565b60008190506105918261056f565b919050565b60006105a182610583565b9050919050565b6105b181610596565b82525050565b60006020820190506105cc60008301846105a8565b92915050565b7f4e487b7100000000000000000000000000000000000000000000000000000000600052601160045260246000fd5b600061060c8261050c565b91506106178361050c565b9250827fffffffffffffffffffffffffffffffffffffffffffffffffffffffffffffffff0382111561064c5761064b6105d2565b5b828201905092915050565b600081905092915050565b50565b6000610672600083610657565b915061067d82610662565b600082019050919050565b600061069382610665565b915081905091905056fea2646970667358221220941de78f46a5b47131de2dcd7034d3ff843f048466d6793fa8dc35a7b04bae4664736f6c63430008090033a26469706673582212201d4752d4eab8f2725a13160d79c75f6d4b47c437025c373fdb46df6950476d1d64736f6c63430008090033",
  "devdoc": {
    "kind": "dev",
    "methods": {},
    "version": 1
  },
  "userdoc": {
    "kind": "user",
    "methods": {},
    "version": 1
  },
  "storageLayout": {
    "storage": [
      {
        "astId": 170,
        "contract": "contracts/stakeFactory.sol:StakeFactory",
        "label": "stakeAddrresses",
        "offset": 0,
        "slot": "0",
        "type": "t_array(t_contract(Stake)163)dyn_storage"
      }
    ],
    "types": {
      "t_array(t_contract(Stake)163)dyn_storage": {
        "base": "t_contract(Stake)163",
        "encoding": "dynamic_array",
        "label": "contract Stake[]",
        "numberOfBytes": "32"
      },
      "t_contract(Stake)163": {
        "encoding": "inplace",
        "label": "contract Stake",
        "numberOfBytes": "20"
      }
    }
  }
}