{
  "address": "0x0a17FabeA4633ce714F1Fa4a2dcA62C3bAc4758d",
  "abi": [
    {
      "inputs": [],
      "stateMutability": "payable",
      "type": "constructor"
    },
    {
      "inputs": [],
      "name": "Stake__NoStaker",
      "type": "error"
    },
    {
      "inputs": [],
      "name": "Stake__NotOwner",
      "type": "error"
    },
    {
      "inputs": [],
      "name": "Stake__transferFailed",
      "type": "error"
    },
    {
      "anonymous": false,
      "inputs": [
        {
          "indexed": true,
          "internalType": "address",
          "name": "stakeContract",
          "type": "address"
        }
      ],
      "name": "createdStake",
      "type": "event"
    },
    {
      "stateMutability": "payable",
      "type": "fallback"
    },
    {
      "inputs": [],
      "name": "createStake",
      "outputs": [],
      "stateMutability": "payable",
      "type": "function"
    },
    {
      "inputs": [],
      "name": "getDeadlinefromContract",
      "outputs": [
        {
          "internalType": "uint256",
          "name": "",
          "type": "uint256"
        }
      ],
      "stateMutability": "view",
      "type": "function"
    },
    {
      "inputs": [],
      "name": "getInterval",
      "outputs": [
        {
          "internalType": "uint256",
          "name": "",
          "type": "uint256"
        }
      ],
      "stateMutability": "pure",
      "type": "function"
    },
    {
      "inputs": [],
      "name": "getNoofStakers",
      "outputs": [
        {
          "internalType": "uint256",
          "name": "",
          "type": "uint256"
        }
      ],
      "stateMutability": "view",
      "type": "function"
    },
    {
      "inputs": [
        {
          "internalType": "uint256",
          "name": "_index",
          "type": "uint256"
        }
      ],
      "name": "getStakeAddresses",
      "outputs": [
        {
          "internalType": "address",
          "name": "",
          "type": "address"
        }
      ],
      "stateMutability": "view",
      "type": "function"
    },
    {
      "inputs": [],
      "name": "i_owner",
      "outputs": [
        {
          "internalType": "address",
          "name": "",
          "type": "address"
        }
      ],
      "stateMutability": "view",
      "type": "function"
    },
    {
      "inputs": [],
      "name": "showProfit",
      "outputs": [
        {
          "internalType": "uint256",
          "name": "",
          "type": "uint256"
        }
      ],
      "stateMutability": "view",
      "type": "function"
    },
    {
      "inputs": [
        {
          "internalType": "uint256",
          "name": "",
          "type": "uint256"
        }
      ],
      "name": "stakeAddresses",
      "outputs": [
        {
          "internalType": "contract Stake",
          "name": "",
          "type": "address"
        }
      ],
      "stateMutability": "view",
      "type": "function"
    },
    {
      "inputs": [
        {
          "internalType": "uint256",
          "name": "_amount",
          "type": "uint256"
        }
      ],
      "name": "withdraw",
      "outputs": [],
      "stateMutability": "payable",
      "type": "function"
    },
    {
      "stateMutability": "payable",
      "type": "receive"
    }
  ],
  "transactionHash": "0x61f5648c03c5c31a7f4b0629d8cef0a7144cd26bc7685c31e71f2f54008b99f5",
  "args": [],
  "numDeployments": 1,
  "solcInputHash": "2e6d5a10b7d66c6ec804b395b4011515",
  "bytecode": "0x608060405267030d98d59a96000060015560003073ffffffffffffffffffffffffffffffffffffffff16346040516100369061012b565b60006040518083038185875af1925050503d8060008114610073576040519150601f19603f3d011682016040523d82523d6000602084013e610078565b606091505b50509050806100b3576040517ff1b8e45500000000000000000000000000000000000000000000000000000000815260040160405180910390fd5b33600260006101000a81548173ffffffffffffffffffffffffffffffffffffffff021916908373ffffffffffffffffffffffffffffffffffffffff16021790555050610140565b600081905092915050565b50565b60006101156000836100fa565b915061012082610105565b600082019050919050565b600061013682610108565b9150819050919050565b611be18061014f6000396000f3fe608060405260043610620000975760003560e01c80633fca7a6a11620000615780633fca7a6a14620001c35780638f351464146200020757806391ad27b41462000237578063b3dbd1bc1462000267578063dba6335f146200029757620000e0565b80630c7331b11462000123578063294f5fa3146200012f5780632cbd5e4214620001735780632e1a7d4d14620001a357620000e0565b36620000e057620000de6040518060400160405280600e81526020017f2d2d2d2d2d20726563656976653a00000000000000000000000000000000000081525034620002c7565b005b620001216040518060400160405280600f81526020017f2d2d2d2d2d2066616c6c6261636b3a000000000000000000000000000000000081525034620002c7565b005b6200012d62000367565b005b3480156200013c57600080fd5b506200015b6004803603810190620001559190620007e4565b62000444565b6040516200016a9190620008a1565b60405180910390f35b3480156200018057600080fd5b506200018b62000484565b6040516200019a9190620008cf565b60405180910390f35b620001c16004803603810190620001bb9190620007e4565b620005aa565b005b348015620001d057600080fd5b50620001ef6004803603810190620001e99190620007e4565b620006de565b604051620001fe919062000911565b60405180910390f35b3480156200021457600080fd5b506200021f62000728565b6040516200022e9190620008cf565b60405180910390f35b3480156200024457600080fd5b506200024f62000732565b6040516200025e9190620008cf565b60405180910390f35b3480156200027457600080fd5b506200027f6200073b565b6040516200028e9190620008cf565b60405180910390f35b348015620002a457600080fd5b50620002af62000747565b604051620002be919062000911565b60405180910390f35b620003638282604051602401620002e0929190620009d2565b6040516020818303038152906040527f9710a9d0000000000000000000000000000000000000000000000000000000007bffffffffffffffffffffffffffffffffffffffffffffffffffffffff19166020820180517bffffffffffffffffffffffffffffffffffffffffffffffffffffffff83818316178352505050506200076d565b5050565b60006001546040516200037a9062000796565b6040518091039082f090508015801562000398573d6000803e3d6000fd5b5090506000819080600181540180825580915050600190039060005260206000200160009091909190916101000a81548173ffffffffffffffffffffffffffffffffffffffff021916908373ffffffffffffffffffffffffffffffffffffffff1602179055508073ffffffffffffffffffffffffffffffffffffffff167f54bc5c83f6892238157d0568e97d12ded274eeefd5a6fc121aa090f4cacd6df660405160405180910390a250565b600081815481106200045557600080fd5b906000526020600020016000915054906101000a900473ffffffffffffffffffffffffffffffffffffffff1681565b600080620004916200073b565b905060008111620004ce576040517f03bdd14700000000000000000000000000000000000000000000000000000000815260040160405180910390fd5b600080600183620004e0919062000a35565b81548110620004f457620004f362000a70565b5b9060005260206000200160009054906101000a900473ffffffffffffffffffffffffffffffffffffffff1673ffffffffffffffffffffffffffffffffffffffff16635f8d96de6040518163ffffffff1660e01b815260040160206040518083038186803b1580156200056557600080fd5b505afa1580156200057a573d6000803e3d6000fd5b505050506040513d601f19601f82011682018060405250810190620005a0919062000ab6565b9050809250505090565b600260009054906101000a900473ffffffffffffffffffffffffffffffffffffffff1673ffffffffffffffffffffffffffffffffffffffff163373ffffffffffffffffffffffffffffffffffffffff161462000632576040517ff703ca8600000000000000000000000000000000000000000000000000000000815260040160405180910390fd5b60003373ffffffffffffffffffffffffffffffffffffffff16826040516200065a9062000b1d565b60006040518083038185875af1925050503d806000811462000699576040519150601f19603f3d011682016040523d82523d6000602084013e6200069e565b606091505b5050905080620006da576040517ff1b8e45500000000000000000000000000000000000000000000000000000000815260040160405180910390fd5b5050565b6000808281548110620006f657620006f562000a70565b5b9060005260206000200160009054906101000a900473ffffffffffffffffffffffffffffffffffffffff169050919050565b6000600154905090565b60006078905090565b60008080549050905090565b600260009054906101000a900473ffffffffffffffffffffffffffffffffffffffff1681565b60008151905060006a636f6e736f6c652e6c6f679050602083016000808483855afa5050505050565b6110778062000b3583390190565b600080fd5b6000819050919050565b620007be81620007a9565b8114620007ca57600080fd5b50565b600081359050620007de81620007b3565b92915050565b600060208284031215620007fd57620007fc620007a4565b5b60006200080d84828501620007cd565b91505092915050565b600073ffffffffffffffffffffffffffffffffffffffff82169050919050565b6000819050919050565b6000620008616200085b620008558462000816565b62000836565b62000816565b9050919050565b6000620008758262000840565b9050919050565b6000620008898262000868565b9050919050565b6200089b816200087c565b82525050565b6000602082019050620008b8600083018462000890565b92915050565b620008c981620007a9565b82525050565b6000602082019050620008e66000830184620008be565b92915050565b6000620008f98262000816565b9050919050565b6200090b81620008ec565b82525050565b600060208201905062000928600083018462000900565b92915050565b600081519050919050565b600082825260208201905092915050565b60005b838110156200096a5780820151818401526020810190506200094d565b838111156200097a576000848401525b50505050565b6000601f19601f8301169050919050565b60006200099e826200092e565b620009aa818562000939565b9350620009bc8185602086016200094a565b620009c78162000980565b840191505092915050565b60006040820190508181036000830152620009ee818562000991565b9050620009ff6020830184620008be565b9392505050565b7f4e487b7100000000000000000000000000000000000000000000000000000000600052601160045260246000fd5b600062000a4282620007a9565b915062000a4f83620007a9565b92508282101562000a655762000a6462000a06565b5b828203905092915050565b7f4e487b7100000000000000000000000000000000000000000000000000000000600052603260045260246000fd5b60008151905062000ab081620007b3565b92915050565b60006020828403121562000acf5762000ace620007a4565b5b600062000adf8482850162000a9f565b91505092915050565b600081905092915050565b50565b600062000b0560008362000ae8565b915062000b128262000af3565b600082019050919050565b600062000b2a8262000af6565b915081905091905056fe60a06040524760015560b46080908152506200002e6000546001546200011c60201b620006911790919060201c565b60045560003073ffffffffffffffffffffffffffffffffffffffff1634604051620000599062000169565b60006040518083038185875af1925050503d806000811462000098576040519150601f19603f3d011682016040523d82523d6000602084013e6200009d565b606091505b5050905080620000d9576040517ff1b8e45500000000000000000000000000000000000000000000000000000000815260040160405180910390fd5b346000819055506001600360006101000a81548160ff0219169083600381111562000109576200010862000180565b5b0217905550426002819055505062000223565b600081836200012c9190620001e8565b905092915050565b600081905092915050565b50565b60006200015160008362000134565b91506200015e826200013f565b600082019050919050565b6000620001768262000142565b9150819050919050565b7f4e487b7100000000000000000000000000000000000000000000000000000000600052602160045260246000fd5b6000819050919050565b7f4e487b7100000000000000000000000000000000000000000000000000000000600052601160045260246000fd5b6000620001f582620001af565b91506200020283620001af565b925082821015620002185762000217620001b9565b5b828203905092915050565b608051610e2a6200024d60003960008181610280015281816104b101526105fa0152610e2a6000f3fe6080604052600436106100a05760003560e01c8063a9bdbf8911610064578063a9bdbf8914610189578063d0e30db0146101b4578063e3c998fe146101be578063e5a4bed3146101fb578063e75235b814610226578063f86ccd4114610251576100af565b806327e235e3146100b45780633ccfd60b146100f15780634f1c44e8146101085780635c8c0106146101335780635f8d96de1461015e576100af565b366100af576100ad61027c565b005b600080fd5b3480156100c057600080fd5b506100db60048036038101906100d69190610a6d565b610497565b6040516100e89190610ab3565b60405180910390f35b3480156100fd57600080fd5b506101066104af565b005b34801561011457600080fd5b5061011d6105d6565b60405161012a9190610b45565b60405180910390f35b34801561013f57600080fd5b506101486105e9565b6040516101559190610ab3565b60405180910390f35b34801561016a57600080fd5b506101736105f6565b6040516101809190610ab3565b60405180910390f35b34801561019557600080fd5b5061019e61061e565b6040516101ab9190610ab3565b60405180910390f35b6101bc61027c565b005b3480156101ca57600080fd5b506101e560048036038101906101e09190610b8c565b610628565b6040516101f29190610bc8565b60405180910390f35b34801561020757600080fd5b50610210610670565b60405161021d9190610ab3565b60405180910390f35b34801561023257600080fd5b5061023b610679565b6040516102489190610ab3565b60405180910390f35b34801561025d57600080fd5b50610266610689565b6040516102739190610ab3565b60405180910390f35b60007f00000000000000000000000000000000000000000000000000000000000000006102b46002544261069190919063ffffffff16565b119050600080471190508180156102c85750805b156102f9576000600360006101000a81548160ff021916908360038111156102f3576102f2610ace565b5b02179055505b6000600381111561030d5761030c610ace565b5b600360009054906101000a900460ff16600381111561032f5761032e610ace565b5b1415610367576040517f931c2fa100000000000000000000000000000000000000000000000000000000815260040160405180910390fd5b600034116103a1576040517f6ef2e20400000000000000000000000000000000000000000000000000000000815260040160405180910390fd5b34600560003273ffffffffffffffffffffffffffffffffffffffff1673ffffffffffffffffffffffffffffffffffffffff16815260200190815260200160002060008282546103f09190610c12565b925050819055506006329080600181540180825580915050600190039060005260206000200160009091909190916101000a81548173ffffffffffffffffffffffffffffffffffffffff021916908373ffffffffffffffffffffffffffffffffffffffff1602179055507f82228ddde9005f71e552e17d0b2b4bd53f597251cd2afae87474c9895438a57a343260405161048b929190610c68565b60405180910390a15050565b60056020528060005260406000206000915090505481565b7f00000000000000000000000000000000000000000000000000000000000000006104e56002544261069190919063ffffffff16565b101561051d576040517f65e76f8100000000000000000000000000000000000000000000000000000000815260040160405180910390fd5b600080544761052c9190610c91565b9050670de0b6b3a76400008110610575576002600360006101000a81548160ff0219169083600381111561056357610562610ace565b5b02179055506105706106a7565b6105a8565b60038060006101000a81548160ff0219169083600381111561059a57610599610ace565b5b02179055506105a7610828565b5b6000600360006101000a81548160ff021916908360038111156105ce576105cd610ace565b5b021790555050565b600360009054906101000a900460ff1681565b6000600680549050905090565b60007f0000000000000000000000000000000000000000000000000000000000000000905090565b6000600454905090565b60006006828154811061063e5761063d610cc5565b5b9060005260206000200160009054906101000a900473ffffffffffffffffffffffffffffffffffffffff169050919050565b60008054905090565b6000670de0b6b3a7640000905090565b600047905090565b6000818361069f9190610c91565b905092915050565b600260038111156106bb576106ba610ace565b5b600360009054906101000a900460ff1660038111156106dd576106dc610ace565b5b146106e757600080fd5b6000600560003273ffffffffffffffffffffffffffffffffffffffff1673ffffffffffffffffffffffffffffffffffffffff168152602001908152602001600020549050600061073982600454610997565b90506000600560003273ffffffffffffffffffffffffffffffffffffffff1673ffffffffffffffffffffffffffffffffffffffff1681526020019081526020016000208190555060003273ffffffffffffffffffffffffffffffffffffffff16826040516107a690610d25565b60006040518083038185875af1925050503d80600081146107e3576040519150601f19603f3d011682016040523d82523d6000602084013e6107e8565b606091505b5050905080610823576040517ff1b8e45500000000000000000000000000000000000000000000000000000000815260040160405180910390fd5b505050565b60038081111561083b5761083a610ace565b5b600360009054906101000a900460ff16600381111561085d5761085c610ace565b5b1461086757600080fd5b6000600560003273ffffffffffffffffffffffffffffffffffffffff1673ffffffffffffffffffffffffffffffffffffffff1681526020019081526020016000205490506000600560003273ffffffffffffffffffffffffffffffffffffffff1673ffffffffffffffffffffffffffffffffffffffff1681526020019081526020016000208190555060003273ffffffffffffffffffffffffffffffffffffffff168260405161091690610d25565b60006040518083038185875af1925050503d8060008114610953576040519150601f19603f3d011682016040523d82523d6000602084013e610958565b606091505b5050905080610993576040517ff1b8e45500000000000000000000000000000000000000000000000000000000815260040160405180910390fd5b5050565b6000806109c16000546109b385876109de90919063ffffffff16565b6109f490919063ffffffff16565b9050600081856109d19190610c12565b9050809250505092915050565b600081836109ec9190610d69565b905092915050565b60008183610a029190610d9a565b905092915050565b600080fd5b600073ffffffffffffffffffffffffffffffffffffffff82169050919050565b6000610a3a82610a0f565b9050919050565b610a4a81610a2f565b8114610a5557600080fd5b50565b600081359050610a6781610a41565b92915050565b600060208284031215610a8357610a82610a0a565b5b6000610a9184828501610a58565b91505092915050565b6000819050919050565b610aad81610a9a565b82525050565b6000602082019050610ac86000830184610aa4565b92915050565b7f4e487b7100000000000000000000000000000000000000000000000000000000600052602160045260246000fd5b60048110610b0e57610b0d610ace565b5b50565b6000819050610b1f82610afd565b919050565b6000610b2f82610b11565b9050919050565b610b3f81610b24565b82525050565b6000602082019050610b5a6000830184610b36565b92915050565b610b6981610a9a565b8114610b7457600080fd5b50565b600081359050610b8681610b60565b92915050565b600060208284031215610ba257610ba1610a0a565b5b6000610bb084828501610b77565b91505092915050565b610bc281610a2f565b82525050565b6000602082019050610bdd6000830184610bb9565b92915050565b7f4e487b7100000000000000000000000000000000000000000000000000000000600052601160045260246000fd5b6000610c1d82610a9a565b9150610c2883610a9a565b9250827fffffffffffffffffffffffffffffffffffffffffffffffffffffffffffffffff03821115610c5d57610c5c610be3565b5b828201905092915050565b6000604082019050610c7d6000830185610aa4565b610c8a6020830184610bb9565b9392505050565b6000610c9c82610a9a565b9150610ca783610a9a565b925082821015610cba57610cb9610be3565b5b828203905092915050565b7f4e487b7100000000000000000000000000000000000000000000000000000000600052603260045260246000fd5b600081905092915050565b50565b6000610d0f600083610cf4565b9150610d1a82610cff565b600082019050919050565b6000610d3082610d02565b9150819050919050565b7f4e487b7100000000000000000000000000000000000000000000000000000000600052601260045260246000fd5b6000610d7482610a9a565b9150610d7f83610a9a565b925082610d8f57610d8e610d3a565b5b828204905092915050565b6000610da582610a9a565b9150610db083610a9a565b9250817fffffffffffffffffffffffffffffffffffffffffffffffffffffffffffffffff0483118215151615610de957610de8610be3565b5b82820290509291505056fea26469706673582212200b3f6f9254f8086cf45e7b16b4cd22843ac85d92e6b7154483fde3d31b78a81864736f6c63430008090033a26469706673582212203d0c857370887b7cff6199ca18efa5c094270d42f6b4832e365e2d3c3a434da164736f6c63430008090033",
  "devdoc": {
    "kind": "dev",
    "methods": {},
    "version": 1
  },
  "userdoc": {
    "kind": "user",
    "methods": {},
    "version": 1
  },
  "storageLayout": {
    "storage": [
      {
        "astId": 792,
        "contract": "contracts/stakeFactory.sol:StakeFactory",
        "label": "stakeAddresses",
        "offset": 0,
        "slot": "0",
        "type": "t_array(t_contract(Stake)780)dyn_storage"
      },
      {
        "astId": 795,
        "contract": "contracts/stakeFactory.sol:StakeFactory",
        "label": "profit",
        "offset": 0,
        "slot": "1",
        "type": "t_uint256"
      },
      {
        "astId": 800,
        "contract": "contracts/stakeFactory.sol:StakeFactory",
        "label": "i_owner",
        "offset": 0,
        "slot": "2",
        "type": "t_address"
      }
    ],
    "types": {
      "t_address": {
        "encoding": "inplace",
        "label": "address",
        "numberOfBytes": "20"
      },
      "t_array(t_contract(Stake)780)dyn_storage": {
        "base": "t_contract(Stake)780",
        "encoding": "dynamic_array",
        "label": "contract Stake[]",
        "numberOfBytes": "32"
      },
      "t_contract(Stake)780": {
        "encoding": "inplace",
        "label": "contract Stake",
        "numberOfBytes": "20"
      },
      "t_uint256": {
        "encoding": "inplace",
        "label": "uint256",
        "numberOfBytes": "32"
      }
    }
  }
}