{
  "address": "0x5e6CB7E728E1C320855587E1D9C6F7972ebdD6D5",
  "abi": [
    {
      "inputs": [],
      "stateMutability": "payable",
      "type": "constructor"
    },
    {
      "inputs": [],
      "name": "Stake__NoStaker",
      "type": "error"
    },
    {
      "inputs": [],
      "name": "Stake__transferFailed",
      "type": "error"
    },
    {
      "anonymous": false,
      "inputs": [
        {
          "indexed": false,
          "internalType": "address",
          "name": "stakeContract",
          "type": "address"
        }
      ],
      "name": "createdStake",
      "type": "event"
    },
    {
      "stateMutability": "payable",
      "type": "fallback"
    },
    {
      "inputs": [],
      "name": "createStake",
      "outputs": [],
      "stateMutability": "payable",
      "type": "function"
    },
    {
      "inputs": [],
      "name": "getDeadlinefromContract",
      "outputs": [
        {
          "internalType": "uint256",
          "name": "",
          "type": "uint256"
        }
      ],
      "stateMutability": "view",
      "type": "function"
    },
    {
      "inputs": [],
      "name": "getInterval",
      "outputs": [
        {
          "internalType": "uint256",
          "name": "",
          "type": "uint256"
        }
      ],
      "stateMutability": "pure",
      "type": "function"
    },
    {
      "inputs": [],
      "name": "getNoofStakers",
      "outputs": [
        {
          "internalType": "uint256",
          "name": "",
          "type": "uint256"
        }
      ],
      "stateMutability": "view",
      "type": "function"
    },
    {
      "inputs": [
        {
          "internalType": "uint256",
          "name": "_index",
          "type": "uint256"
        }
      ],
      "name": "getStakeAddresses",
      "outputs": [
        {
          "internalType": "address",
          "name": "",
          "type": "address"
        }
      ],
      "stateMutability": "view",
      "type": "function"
    },
    {
      "inputs": [],
      "name": "showProfit",
      "outputs": [
        {
          "internalType": "uint256",
          "name": "",
          "type": "uint256"
        }
      ],
      "stateMutability": "view",
      "type": "function"
    },
    {
      "inputs": [
        {
          "internalType": "uint256",
          "name": "",
          "type": "uint256"
        }
      ],
      "name": "stakeAddresses",
      "outputs": [
        {
          "internalType": "contract Stake",
          "name": "",
          "type": "address"
        }
      ],
      "stateMutability": "view",
      "type": "function"
    },
    {
      "stateMutability": "payable",
      "type": "receive"
    }
  ],
  "transactionHash": "0x2bcafba239cc36bef6b8d41929b1893dc01537bbde8c697924b9e55fb2fc3840",
  "args": [],
  "numDeployments": 1,
  "solcInputHash": "10a7076cd9e7ddc2759588c6a8ac9f12",
  "bytecode": "0x6080604052671bc16d674ec8000060015560003073ffffffffffffffffffffffffffffffffffffffff1634604051610036906100ea565b60006040518083038185875af1925050503d8060008114610073576040519150601f19603f3d011682016040523d82523d6000602084013e610078565b606091505b50509050806100b3576040517ff1b8e45500000000000000000000000000000000000000000000000000000000815260040160405180910390fd5b506100ff565b600081905092915050565b50565b60006100d46000836100b9565b91506100df826100c4565b600082019050919050565b60006100f5826100c7565b9150819050919050565b611e0d8061010e6000396000f3fe6080604052600436106200007f5760003560e01c80633fca7a6a11620000555780633fca7a6a146200018b5780638f35146414620001cf57806391ad27b414620001ff578063b3dbd1bc146200022f57620000c8565b80630c7331b1146200010b578063294f5fa314620001175780632cbd5e42146200015b57620000c8565b36620000c857620000c66040518060400160405280600e81526020017f2d2d2d2d2d20726563656976653a000000000000000000000000000000000000815250346200025f565b005b620001096040518060400160405280600f81526020017f2d2d2d2d2d2066616c6c6261636b3a0000000000000000000000000000000000815250346200025f565b005b62000115620002ff565b005b3480156200012457600080fd5b506200014360048036038101906200013d919062000618565b620003d2565b604051620001529190620006d5565b60405180910390f35b3480156200016857600080fd5b506200017362000412565b60405162000182919062000703565b60405180910390f35b3480156200019857600080fd5b50620001b76004803603810190620001b1919062000618565b62000538565b604051620001c6919062000745565b60405180910390f35b348015620001dc57600080fd5b50620001e762000582565b604051620001f6919062000703565b60405180910390f35b3480156200020c57600080fd5b50620002176200058c565b60405162000226919062000703565b60405180910390f35b3480156200023c57600080fd5b506200024762000595565b60405162000256919062000703565b60405180910390f35b620002fb82826040516024016200027892919062000806565b6040516020818303038152906040527f9710a9d0000000000000000000000000000000000000000000000000000000007bffffffffffffffffffffffffffffffffffffffffffffffffffffffff19166020820180517bffffffffffffffffffffffffffffffffffffffffffffffffffffffff8381831617835250505050620005a1565b5050565b60006001546040516200031290620005ca565b6040518091039082f090508015801562000330573d6000803e3d6000fd5b5090506000819080600181540180825580915050600190039060005260206000200160009091909190916101000a81548173ffffffffffffffffffffffffffffffffffffffff021916908373ffffffffffffffffffffffffffffffffffffffff1602179055507f54bc5c83f6892238157d0568e97d12ded274eeefd5a6fc121aa090f4cacd6df681604051620003c7919062000745565b60405180910390a150565b60008181548110620003e357600080fd5b906000526020600020016000915054906101000a900473ffffffffffffffffffffffffffffffffffffffff1681565b6000806200041f62000595565b9050600081116200045c576040517f03bdd14700000000000000000000000000000000000000000000000000000000815260040160405180910390fd5b6000806001836200046e919062000869565b81548110620004825762000481620008a4565b5b9060005260206000200160009054906101000a900473ffffffffffffffffffffffffffffffffffffffff1673ffffffffffffffffffffffffffffffffffffffff16635f8d96de6040518163ffffffff1660e01b815260040160206040518083038186803b158015620004f357600080fd5b505afa15801562000508573d6000803e3d6000fd5b505050506040513d601f19601f820116820180604052508101906200052e9190620008ea565b9050809250505090565b600080828154811062000550576200054f620008a4565b5b9060005260206000200160009054906101000a900473ffffffffffffffffffffffffffffffffffffffff169050919050565b6000600154905090565b60006078905090565b60008080549050905090565b60008151905060006a636f6e736f6c652e6c6f679050602083016000808483855afa5050505050565b6114bb806200091d83390190565b600080fd5b6000819050919050565b620005f281620005dd565b8114620005fe57600080fd5b50565b6000813590506200061281620005e7565b92915050565b600060208284031215620006315762000630620005d8565b5b6000620006418482850162000601565b91505092915050565b600073ffffffffffffffffffffffffffffffffffffffff82169050919050565b6000819050919050565b6000620006956200068f62000689846200064a565b6200066a565b6200064a565b9050919050565b6000620006a98262000674565b9050919050565b6000620006bd826200069c565b9050919050565b620006cf81620006b0565b82525050565b6000602082019050620006ec6000830184620006c4565b92915050565b620006fd81620005dd565b82525050565b60006020820190506200071a6000830184620006f2565b92915050565b60006200072d826200064a565b9050919050565b6200073f8162000720565b82525050565b60006020820190506200075c600083018462000734565b92915050565b600081519050919050565b600082825260208201905092915050565b60005b838110156200079e57808201518184015260208101905062000781565b83811115620007ae576000848401525b50505050565b6000601f19601f8301169050919050565b6000620007d28262000762565b620007de81856200076d565b9350620007f08185602086016200077e565b620007fb81620007b4565b840191505092915050565b60006040820190508181036000830152620008228185620007c5565b9050620008336020830184620006f2565b9392505050565b7f4e487b7100000000000000000000000000000000000000000000000000000000600052601160045260246000fd5b60006200087682620005dd565b91506200088383620005dd565b9250828210156200089957620008986200083a565b5b828203905092915050565b7f4e487b7100000000000000000000000000000000000000000000000000000000600052603260045260246000fd5b600081519050620008e481620005e7565b92915050565b600060208284031215620009035762000902620005d8565b5b60006200091384828501620008d3565b9150509291505056fe60a06040524760015560b46080908152506200002e6000546001546200011c60201b620007b71790919060201c565b60045560003073ffffffffffffffffffffffffffffffffffffffff1634604051620000599062000169565b60006040518083038185875af1925050503d806000811462000098576040519150601f19603f3d011682016040523d82523d6000602084013e6200009d565b606091505b5050905080620000d9576040517ff1b8e45500000000000000000000000000000000000000000000000000000000815260040160405180910390fd5b346000819055506001600360006101000a81548160ff0219169083600381111562000109576200010862000180565b5b0217905550426002819055505062000223565b600081836200012c9190620001e8565b905092915050565b600081905092915050565b50565b60006200015160008362000134565b91506200015e826200013f565b600082019050919050565b6000620001768262000142565b9150819050919050565b7f4e487b7100000000000000000000000000000000000000000000000000000000600052602160045260246000fd5b6000819050919050565b7f4e487b7100000000000000000000000000000000000000000000000000000000600052601160045260246000fd5b6000620001f582620001af565b91506200020283620001af565b925082821015620002185762000217620001b9565b5b828203905092915050565b60805161126e6200024d600039600081816104bf0152818161068c01526106b8015261126e6000f3fe6080604052600436106100c65760003560e01c80636e04ff0d1161007f578063e3c998fe11610059578063e3c998fe1461024b578063e5a4bed314610288578063e75235b8146102b3578063f86ccd41146102de576100d5565b80636e04ff0d146101d8578063a9bdbf8914610216578063d0e30db014610241576100d5565b806327e235e3146100da5780633ccfd60b146101175780634585e33b1461012e5780634f1c44e8146101575780635c8c0106146101825780635f8d96de146101ad576100d5565b366100d5576100d3610309565b005b600080fd5b3480156100e657600080fd5b5061010160048036038101906100fc9190610ba2565b6104a5565b60405161010e9190610be8565b60405180910390f35b34801561012357600080fd5b5061012c6104bd565b005b34801561013a57600080fd5b5061015560048036038101906101509190610c68565b6105e4565b005b34801561016357600080fd5b5061016c610668565b6040516101799190610d2c565b60405180910390f35b34801561018e57600080fd5b5061019761067b565b6040516101a49190610be8565b60405180910390f35b3480156101b957600080fd5b506101c2610688565b6040516101cf9190610be8565b60405180910390f35b3480156101e457600080fd5b506101ff60048036038101906101fa9190610e88565b6106b0565b60405161020d929190610f74565b60405180910390f35b34801561022257600080fd5b5061022b610744565b6040516102389190610be8565b60405180910390f35b610249610309565b005b34801561025757600080fd5b50610272600480360381019061026d9190610fd0565b61074e565b60405161027f919061100c565b60405180910390f35b34801561029457600080fd5b5061029d610796565b6040516102aa9190610be8565b60405180910390f35b3480156102bf57600080fd5b506102c861079f565b6040516102d59190610be8565b60405180910390f35b3480156102ea57600080fd5b506102f36107af565b6040516103009190610be8565b60405180910390f35b6000600381111561031d5761031c610cb5565b5b600360009054906101000a900460ff16600381111561033f5761033e610cb5565b5b1415610377576040517f931c2fa100000000000000000000000000000000000000000000000000000000815260040160405180910390fd5b600034116103b1576040517f6ef2e20400000000000000000000000000000000000000000000000000000000815260040160405180910390fd5b34600560003273ffffffffffffffffffffffffffffffffffffffff1673ffffffffffffffffffffffffffffffffffffffff16815260200190815260200160002060008282546104009190611056565b925050819055506006329080600181540180825580915050600190039060005260206000200160009091909190916101000a81548173ffffffffffffffffffffffffffffffffffffffff021916908373ffffffffffffffffffffffffffffffffffffffff1602179055507f82228ddde9005f71e552e17d0b2b4bd53f597251cd2afae87474c9895438a57a343260405161049b9291906110ac565b60405180910390a1565b60056020528060005260406000206000915090505481565b7f00000000000000000000000000000000000000000000000000000000000000006104f3600254426107b790919063ffffffff16565b101561052b576040517f65e76f8100000000000000000000000000000000000000000000000000000000815260040160405180910390fd5b600080544761053a91906110d5565b9050670de0b6b3a76400008110610583576002600360006101000a81548160ff0219169083600381111561057157610570610cb5565b5b021790555061057e6107cd565b6105b6565b60038060006101000a81548160ff021916908360038111156105a8576105a7610cb5565b5b02179055506105b561094e565b5b6000600360006101000a81548160ff021916908360038111156105dc576105db610cb5565b5b021790555050565b60006105fe604051806020016040528060008152506106b0565b50905080610638576040517fd7444a9300000000000000000000000000000000000000000000000000000000815260040160405180910390fd5b6000600360006101000a81548160ff0219169083600381111561065e5761065d610cb5565b5b0217905550505050565b600360009054906101000a900460ff1681565b6000600680549050905090565b60007f0000000000000000000000000000000000000000000000000000000000000000905090565b6000606060007f00000000000000000000000000000000000000000000000000000000000000006106ec600254426107b790919063ffffffff16565b119050600080471190508080156107005750815b9350836040518060400160405280600381526020017f3078300000000000000000000000000000000000000000000000000000000000815250935093505050915091565b6000600454905090565b60006006828154811061076457610763611109565b5b9060005260206000200160009054906101000a900473ffffffffffffffffffffffffffffffffffffffff169050919050565b60008054905090565b6000670de0b6b3a7640000905090565b600047905090565b600081836107c591906110d5565b905092915050565b600260038111156107e1576107e0610cb5565b5b600360009054906101000a900460ff16600381111561080357610802610cb5565b5b1461080d57600080fd5b6000600560003273ffffffffffffffffffffffffffffffffffffffff1673ffffffffffffffffffffffffffffffffffffffff168152602001908152602001600020549050600061085f82600454610abd565b90506000600560003273ffffffffffffffffffffffffffffffffffffffff1673ffffffffffffffffffffffffffffffffffffffff1681526020019081526020016000208190555060003273ffffffffffffffffffffffffffffffffffffffff16826040516108cc90611169565b60006040518083038185875af1925050503d8060008114610909576040519150601f19603f3d011682016040523d82523d6000602084013e61090e565b606091505b5050905080610949576040517ff1b8e45500000000000000000000000000000000000000000000000000000000815260040160405180910390fd5b505050565b60038081111561096157610960610cb5565b5b600360009054906101000a900460ff16600381111561098357610982610cb5565b5b1461098d57600080fd5b6000600560003273ffffffffffffffffffffffffffffffffffffffff1673ffffffffffffffffffffffffffffffffffffffff1681526020019081526020016000205490506000600560003273ffffffffffffffffffffffffffffffffffffffff1673ffffffffffffffffffffffffffffffffffffffff1681526020019081526020016000208190555060003273ffffffffffffffffffffffffffffffffffffffff1682604051610a3c90611169565b60006040518083038185875af1925050503d8060008114610a79576040519150601f19603f3d011682016040523d82523d6000602084013e610a7e565b606091505b5050905080610ab9576040517ff1b8e45500000000000000000000000000000000000000000000000000000000815260040160405180910390fd5b5050565b600080610ae7600054610ad98587610b0490919063ffffffff16565b610b1a90919063ffffffff16565b905060008185610af79190611056565b9050809250505092915050565b60008183610b1291906111ad565b905092915050565b60008183610b2891906111de565b905092915050565b6000604051905090565b600080fd5b600080fd5b600073ffffffffffffffffffffffffffffffffffffffff82169050919050565b6000610b6f82610b44565b9050919050565b610b7f81610b64565b8114610b8a57600080fd5b50565b600081359050610b9c81610b76565b92915050565b600060208284031215610bb857610bb7610b3a565b5b6000610bc684828501610b8d565b91505092915050565b6000819050919050565b610be281610bcf565b82525050565b6000602082019050610bfd6000830184610bd9565b92915050565b600080fd5b600080fd5b600080fd5b60008083601f840112610c2857610c27610c03565b5b8235905067ffffffffffffffff811115610c4557610c44610c08565b5b602083019150836001820283011115610c6157610c60610c0d565b5b9250929050565b60008060208385031215610c7f57610c7e610b3a565b5b600083013567ffffffffffffffff811115610c9d57610c9c610b3f565b5b610ca985828601610c12565b92509250509250929050565b7f4e487b7100000000000000000000000000000000000000000000000000000000600052602160045260246000fd5b60048110610cf557610cf4610cb5565b5b50565b6000819050610d0682610ce4565b919050565b6000610d1682610cf8565b9050919050565b610d2681610d0b565b82525050565b6000602082019050610d416000830184610d1d565b92915050565b600080fd5b6000601f19601f8301169050919050565b7f4e487b7100000000000000000000000000000000000000000000000000000000600052604160045260246000fd5b610d9582610d4c565b810181811067ffffffffffffffff82111715610db457610db3610d5d565b5b80604052505050565b6000610dc7610b30565b9050610dd38282610d8c565b919050565b600067ffffffffffffffff821115610df357610df2610d5d565b5b610dfc82610d4c565b9050602081019050919050565b82818337600083830152505050565b6000610e2b610e2684610dd8565b610dbd565b905082815260208101848484011115610e4757610e46610d47565b5b610e52848285610e09565b509392505050565b600082601f830112610e6f57610e6e610c03565b5b8135610e7f848260208601610e18565b91505092915050565b600060208284031215610e9e57610e9d610b3a565b5b600082013567ffffffffffffffff811115610ebc57610ebb610b3f565b5b610ec884828501610e5a565b91505092915050565b60008115159050919050565b610ee681610ed1565b82525050565b600081519050919050565b600082825260208201905092915050565b60005b83811015610f26578082015181840152602081019050610f0b565b83811115610f35576000848401525b50505050565b6000610f4682610eec565b610f508185610ef7565b9350610f60818560208601610f08565b610f6981610d4c565b840191505092915050565b6000604082019050610f896000830185610edd565b8181036020830152610f9b8184610f3b565b90509392505050565b610fad81610bcf565b8114610fb857600080fd5b50565b600081359050610fca81610fa4565b92915050565b600060208284031215610fe657610fe5610b3a565b5b6000610ff484828501610fbb565b91505092915050565b61100681610b64565b82525050565b60006020820190506110216000830184610ffd565b92915050565b7f4e487b7100000000000000000000000000000000000000000000000000000000600052601160045260246000fd5b600061106182610bcf565b915061106c83610bcf565b9250827fffffffffffffffffffffffffffffffffffffffffffffffffffffffffffffffff038211156110a1576110a0611027565b5b828201905092915050565b60006040820190506110c16000830185610bd9565b6110ce6020830184610ffd565b9392505050565b60006110e082610bcf565b91506110eb83610bcf565b9250828210156110fe576110fd611027565b5b828203905092915050565b7f4e487b7100000000000000000000000000000000000000000000000000000000600052603260045260246000fd5b600081905092915050565b50565b6000611153600083611138565b915061115e82611143565b600082019050919050565b600061117482611146565b9150819050919050565b7f4e487b7100000000000000000000000000000000000000000000000000000000600052601260045260246000fd5b60006111b882610bcf565b91506111c383610bcf565b9250826111d3576111d261117e565b5b828204905092915050565b60006111e982610bcf565b91506111f483610bcf565b9250817fffffffffffffffffffffffffffffffffffffffffffffffffffffffffffffffff048311821515161561122d5761122c611027565b5b82820290509291505056fea2646970667358221220a554b683860dcea5f78f3ed2fedd50c66d1581103f1cee9f6b7a69d95d576f1564736f6c63430008090033a264697066735822122060d7961de5ebe9ce05022f25898edb0d4d6c9adfaa39adca89a8681a25ef68ce64736f6c63430008090033",
  "devdoc": {
    "kind": "dev",
    "methods": {},
    "version": 1
  },
  "userdoc": {
    "kind": "user",
    "methods": {},
    "version": 1
  },
  "storageLayout": {
    "storage": [
      {
        "astId": 817,
        "contract": "contracts/stakeFactory.sol:StakeFactory",
        "label": "stakeAddresses",
        "offset": 0,
        "slot": "0",
        "type": "t_array(t_contract(Stake)807)dyn_storage"
      },
      {
        "astId": 820,
        "contract": "contracts/stakeFactory.sol:StakeFactory",
        "label": "profit",
        "offset": 0,
        "slot": "1",
        "type": "t_uint256"
      }
    ],
    "types": {
      "t_array(t_contract(Stake)807)dyn_storage": {
        "base": "t_contract(Stake)807",
        "encoding": "dynamic_array",
        "label": "contract Stake[]",
        "numberOfBytes": "32"
      },
      "t_contract(Stake)807": {
        "encoding": "inplace",
        "label": "contract Stake",
        "numberOfBytes": "20"
      },
      "t_uint256": {
        "encoding": "inplace",
        "label": "uint256",
        "numberOfBytes": "32"
      }
    }
  }
}